:100000000C94A7000C94CF000C94CF000C94CF005C
:100010000C94CF000C94CF000C94CF000C94CF0024
:100020000C94CF000C94CF000C94CF000C94CF0014
:100030000C94CF000C94CF000C94CF000C94CF0004
:100040000C9463030C94CF000C94DD050C942006F3
:100050000C94CF000C94CF000C94CF000C94CF00E4
:100060000C94CF000C94CF004F0352035503580358
:100070005B035E035E035E035E035E035E035E037B
:100080005E035E035E035E035E035E035E035E0368
:100090005E035E035E035E035E035E035E035E0358
:1000A0005E035E035E035E035E035E035E035E0348
:1000B0005E035E035E035E035E035E035E035E0338
:1000C0005E035E035E035E03C302CA025E03D102E7
:1000D000D802DF02E602ED02F402FB02020309038A
:1000E0001003170325032C0333033A03410348038A
:1000F0005E035E035E035E035E031E0300000007F3
:1001000000020100000304060000000000000000DF
:10011000010204081020408001020408102001029E
:10012000040810200404040404040404020202026B
:10013000020203030303030300000000250028005C
:100140002B0000000000240027002A00DC061124F8
:100150001FBECFEFD8E0DEBFCDBF11E0A0E0B1E021
:10016000E0E2F2E102C005900D92AA31B107D9F7A1
:1001700011E0AAE1B1E001C01D92A73DB107E1F78E
:1001800011E0CEE4D1E004C02297FE010E94F00805
:10019000CC34D107C9F70E9479070C940E090C944E
:1001A000000040E855E260E070E08DE291E00E94DE
:1001B0005B0661E089E00E94D60461E08AE00E946B
:1001C000D60461E08CE00E94D60461E086E00C94E5
:1001D000D60460E070E0809104010E944E0464E166
:1001E00070E080E090E00C94D00367E870E08091CC
:1001F00004010C944E046CE870E0809104010C94AE
:100200004E0461E970E0809104010C944E0466E9AB
:1002100070E0809104010C944E0460EA70E08091DB
:1002200004010C944E046EEB70E0809104010C9478
:100230004E046CE870E0809104010E944E0461E479
:1002400070E080E090E00E94D0030E94E90068EE38
:1002500073E080E090E00C94D0036CE870E0809153
:1002600004010E944E046CE370E080E090E00E9484
:10027000D0030E94E90068EE73E080E090E00C9407
:10028000D0036CE870E0809104010E944E0467E3A3
:1002900070E080E090E00E94D0030E94E90068EEE8
:1002A00073E080E090E00C94D0036CE870E0809103
:1002B00004010E944E0462E370E080E090E00E943E
:1002C000D0030E94E90068EE73E080E090E00C94B7
:1002D000D0036CE870E0809104010E944E046DE24E
:1002E00070E080E090E00E94D0030E94E90068EE98
:1002F00073E080E090E00C94D003AF92BF92CF9275
:10030000DF92EF92FF920F931F938EE00E943104D1
:1003100028E833E1DC010E9496082FEF33E040E04B
:1003200050E00E94CF08CA01B90120932001309308
:100330002101409322015093230120931C0130930B
:100340001D0140931E0150931F011F921F921F9287
:100350002FEF2F93A12CB12C650118E8E12E13E1AA
:10036000F12E00E010E020E030E0A9010E94320709
:100370000F900F900F900F906F3F710519F014F0D0
:100380006FEF70E077FF02C060E070E070931B01D8
:1003900060931A0189E00E944E0460911A017091E5
:1003A0001B016F5F71098AE00E944E0467E071E0F3
:1003B0008DE291E00E94C40740911C0150911D0103
:1003C00060911E0170911F012AE030E08DE291E002
:1003D0000E944C0867E071E08DE291E00E94E10725
:1003E0006CE370E080E090E01F910F91FF90EF9040
:1003F000DF90CF90BF90AF900C94D003AF92BF929C
:10040000CF92DF92EF92FF920F931F9383E10E94AE
:10041000310428E833E1DC010E9496082FEF33E035
:1004200040E050E00E94CF08CA01B90120932001AA
:1004300030932101409322015093230120931C010A
:1004400030931D0140931E0150931F011F921F9274
:100450001F922FEF2F93A12CB12C650118E8E12EEC
:1004600013E1F12E00E010E020E030E0A9010E944D
:1004700032070F900F900F900F906F3F710519F09A
:1004800014F06FEF70E077FF02C060E070E07093EF
:100490001B0160931A016FEF70E086E00E944E042A
:1004A00060911A0170911B0189E00E944E046091D5
:1004B0001A0170911B016F5F71098AE00E944E045E
:1004C00067E071E08DE291E00E94C40740911C0159
:1004D00050911D0160911E0170911F012AE030E0D2
:1004E0008DE291E00E944C0867E071E08DE291E0BE
:1004F0000E94E1076CE370E080E090E01F910F91B3
:10050000FF90EF90DF90CF90BF90AF900C94D0030E
:1005100061E08CE00E940F0560E070E089E00E94DD
:100520004E0460E070E08AE00E944E0466E970E0EC
:1005300080E090E00E94D00360E08CE00E940F0514
:1005400060E070E089E00E944E0460E070E08AE0C4
:100550000E944E0466E970E080E090E00C94D003C5
:100560008DE291E00E947205992787FD9095A92F51
:10057000B92FFC01F197EA34F10508F09FC0EC5C5B
:10058000FF4F0C94EE080E9488020E94E9000E942E
:10059000B002F9CF0E9488020E94F5000E94B002CA
:1005A000F9CF0E9488020E9401010E94B002F9CF97
:1005B0000E9488020E9407010E94B002F9CF0E94A7
:1005C00088020E940D010E94B002F9CF0E948802A9
:1005D0000E9413010E94B002F9CF0E94E9000E941C
:1005E0007D010E94B002F9CF0E94F5000E947D01BA
:1005F0000E94B002F9CF0E94FB000E947D010E9480
:10060000B002F9CF0E9401010E947D010E94B00258
:10061000F9CF0E9407010E947D010E94B002F9CF2C
:100620000E940D010E947D010E94B002F9CF0E943C
:1006300013010E947D010E94B002F9CF0E94E900DF
:100640000E94FE010E94B002F9CF0E94F5000E94B4
:10065000FE010E94B002F9CF0E94FB000E94FE0141
:100660000E94B002F9CF0E9401010E94FE010E9487
:10067000B002F9CF0E9407010E94FE010E94B00261
:10068000F9CF0E940D010E94FE010E94B002F9CF35
:100690000E9413010E94FE010E94B002F9CF0E9445
:1006A00019015ECF0E942D015BCF0E94410158CFFE
:1006B0000E94550155CF0E94690152CF08950E94B2
:1006C00088020C94B0021F920F920FB60F92112461
:1006D0002F933F938F939F93AF93BF938091250167
:1006E00090912601A0912701B09128013091240119
:1006F00023E0230F2D3720F40196A11DB11D05C065
:1007000026E8230F0296A11DB11D2093240180939A
:10071000250190932601A0932701B0932801809191
:10072000290190912A01A0912B01B0912C010196F1
:10073000A11DB11D8093290190932A01A0932B0143
:10074000B0932C01BF91AF919F918F913F912F91C9
:100750000F900FBE0F901F9018953FB7F89480919F
:10076000290190912A01A0912B01B0912C0126B56D
:10077000A89B05C02F3F19F00196A11DB11D3FBFD9
:100780006627782F892F9A2F620F711D811D911D69
:1007900042E0660F771F881F991F4A95D1F7089589
:1007A000CF92DF92EF92FF92CF93DF936B017C01A8
:1007B0000E94AD03EB01C114D104E104F10479F00E
:1007C0000E94AD036C1B7D0B683E7340A0F381E07B
:1007D000C81AD108E108F108C851DC4FECCFDF910D
:1007E000CF91FF90EF90DF90CF900895789484B5EB
:1007F000826084BD84B5816084BD85B5826085BD1D
:1008000085B5816085BDEEE6F0E080818160808302
:10081000E1E8F0E0108280818260808380818160E5
:100820008083E0E8F0E0808181608083E1EBF0E0AC
:10083000808184608083E0EBF0E080818160808350
:10084000EAE7F0E080818460808380818260808339
:100850008081816080838081806880831092C10064
:1008600008958E3008F08E5087702091060190E434
:10087000299F90011124822B80937C0080917A0023
:10088000806480937A0080917A0086FDFCCF80910D
:1008900078002091790090E0922B08951F93CF93D8
:1008A000DF93182FEB0161E00E94D604209711F42A
:1008B00060E004C0CF3FD10539F461E0812FDF91C2
:1008C000CF911F910C940F05E12FF0E0E450FF4F02
:1008D000E491E330F9F048F4E130B9F0E230A1F509
:1008E00084B5806284BDC8BD34C0E630E9F0E7302D
:1008F00019F1E43049F58091800080628093800096
:10090000D0938B00C0938A0024C084B5806884BDD6
:10091000C7BD1FC080918000806880938000D09305
:100920008900C093880015C08091B00080688093D2
:10093000B000C093B3000DC08091B000806280937E
:10094000B000C093B40005C0C038D1050CF0B5CFDD
:10095000AFCFDF91CF911F910895833081F028F4BC
:10096000813099F08230A1F008958630A9F0873067
:10097000B9F08430D1F4809180008F7D03C08091E4
:1009800080008F7780938000089584B58F7702C0B0
:1009900084B58F7D84BD08958091B0008F7703C0AA
:1009A0008091B0008F7D8093B0000895CF93DF9346
:1009B00090E0FC01E05FFE4F2491FC01EC5DFE4FF6
:1009C0008491882349F190E0880F991FFC01EE5B28
:1009D000FE4FA591B491885C9E4FFC01C591D491C6
:1009E0009FB7611108C0F8948C91209582238C9355
:1009F000888182230AC0623051F4F8948C91322F9E
:100A0000309583238C938881822B888304C0F8944B
:100A10008C91822B8C939FBFDF91CF9108950F9380
:100A20001F93CF93DF931F92CDB7DEB7282F30E00F
:100A3000F901E450FF4F8491F901E05FFE4F1491FA
:100A4000F901EC5DFE4F04910023C9F0882321F0E9
:100A500069830E94AD046981E02FF0E0EE0FFF1F73
:100A6000E85CFE4FA591B4919FB7F8948C91611109
:100A700003C01095812301C0812B8C939FBF0F90E1
:100A8000DF91CF911F910F910895FC012485358549
:100A9000F901E05CFF4F80819181F901EE5BFF4F2E
:100AA00020813181821B930B8F7399270895FC015C
:100AB00084859585FC01E05CFF4F40815181FC01FC
:100AC000EE5BFF4F208131814217530741F00190C7
:100AD000F081E02DE80FF91F808190E008958FEFFD
:100AE0009FEF0895FC0184859585FC01E05CFF4F34
:100AF00040815181FC01EE5BFF4F20813181421723
:100B0000530779F0A081B181A80FB91F8C91208182
:100B100031812F5F3F4F2F7333273183208390E044
:100B200008958FEF9FEF0895FC0181A1882329F09C
:100B3000A489B5898C9186FFFBCF11A20895CF932C
:100B4000DF93FC0126853785D901A05CBF4F8D91CD
:100B50009C91119701968F739927E901CE5BDF4F26
:100B60004881598184179507D9F30D90BC91A02D28
:100B7000A20FB31F6C93A685B785A05CBF4F1196DB
:100B80009C938E93A689B7892C9181E090E0078C85
:100B900002C0880F991F0A94E2F7282B2C9381E05A
:100BA00081A30488F589E02D80818064808381E0C1
:100BB00090E0DF91CF91089508951F920F920FB6A4
:100BC0000F9211242F933F934F938F939F93EF9303
:100BD000FF938091C00082FD1CC04091C6008091AF
:100BE000D3019091D40101968F7399272091D5015B
:100BF0003091D6018217930771F0E091D301F09103
:100C0000D401ED56FE4F40839093D4018093D301DD
:100C100002C08091C600FF91EF919F918F914F91FB
:100C20003F912F910F900FBE0F901F9018958DE25E
:100C300091E00E944505892B11F00C94DC05089584
:100C40001F920F920FB60F9211242F933F938F9301
:100C50009F93EF93FF9320918F01309190018091AA
:100C60009101909192012817390731F48091C100C8
:100C70008F7D8093C10014C0E0919101F0919201A9
:100C8000E15BFE4F2081809191019091920101964C
:100C90008F73992790939201809391012093C600BE
:100CA000FF91EF919F918F913F912F910F900FBEE8
:100CB0000F901F901895CF92DF92EF92FF92CF93F3
:100CC000DF93EC016A017B01411581EE5807610554
:100CD0007105F9F0EC89FD8981E090E008A002C07F
:100CE000880F991F0A94E2F7808360E079E08DE332
:100CF00090E0A70196010E94AD08215031094109F9
:100D000051095695479537952795211580E1380764
:100D100098F0EC89FD89108260E874E88EE190E03B
:100D2000A70196010E94AD082150310941095109DE
:100D30005695479537952795E889F9893083EA894B
:100D4000FB89208319A2EE89FF89408181E090E030
:100D50009C010C8C02C0220F331F0A94E2F7422B35
:100D60004083EE89FF8940819C010D8C02C0220FD7
:100D7000331F0A94E2F7422B4083EE89FF894081BA
:100D80009C010E8C02C0220F331F0A94E2F7422B03
:100D90004083EE89FF8920810F8C02C0880F991F44
:100DA0000A94E2F7809582238083DF91CF91FF90B0
:100DB000EF90DF90CF9008951092300110922F01A4
:100DC00088EE93E0A0E0B0E080933101909332018F
:100DD000A0933301B09334018DE091E090932E0104
:100DE00080932D0183E991E090933A01809339013A
:100DF0008FE491E090933C0180933B0185EC90E07F
:100E000090933E0180933D0184EC90E090934001EB
:100E100080933F0180EC90E09093420180934101E8
:100E200081EC90E0909344018093430182EC90E048
:100E3000909346018093450186EC90E090934801A1
:100E40008093470184E08093490183E080934A01C5
:100E500087E080934B0185E080934C0181E0809393
:100E60004D0108954F925F926F927F92AF92BF9221
:100E7000CF92DF92EF92FF920F931F93CF93DF9366
:100E8000CDB7DEB729013A01621B730B840B950BBA
:100E900029893A894B895C892A193B094C095D09E2
:100EA000298B3A8B4B8B5C8B9B01AC0169897A89CE
:100EB0008B899C890E949D08E418F508060917098A
:100EC000A80197010E94CF082A0D3B1D4C1D5D1DF6
:100ED000CA01B901DF91CF911F910F91FF90EF905F
:100EE000DF90CF90BF90AF907F906F905F904F90CA
:100EF00008950E94F6030E94D100C7E1D6E00E9447
:100F00005F032097E1F30E941706F9CFCF92DF929B
:100F1000EF92FF920F931F93CF93DF936C017A01AF
:100F2000EB01E60EF71E00E010E0CE15DF0561F0E4
:100F30006991D601ED91FC910190F081E02DC601FF
:100F40000995080F191FF1CFC801DF91CF911F91AB
:100F50000F91FF90EF90DF90CF900895611571058C
:100F600081F0DB010D900020E9F7AD0141505109FE
:100F7000461B570BDC01ED91FC910280F381E02DC3
:100F8000099480E090E008950C94AE07DC01ED91A7
:100F9000FC910190F081E02D09940F931F93CF9362
:100FA000DF93EC016DE00E94C6078C016AE0CE0180
:100FB0000E94C607800F911FDF91CF911F910F9163
:100FC00008950F931F93CF93DF93EC010E94AE0718
:100FD0008C01CE010E94CD07800F911FDF91CF9130
:100FE0001F910F9108958F929F92AF92BF92CF92CF
:100FF000DF92EF92FF920F931F93CF93DF93CDB7C2
:10100000DEB7A1970FB6F894DEBF0FBECDBF7C014F
:10101000C42EE52FCB01D22E19A221E02D1510F000
:101020002AE0D22E8E010F5D1F4F8D2C912CA12C0A
:10103000B12C6C2D7E2FA50194010E94AD088C2D42
:10104000D29E80191124015011098A3014F4805D58
:1010500001C0895CF80180832115310541055105E6
:1010600021F0C22EE32FCA01E4CFB801C7010E94CC
:10107000AE07A1960FB6F894DEBF0FBECDBFDF91CD
:10108000CF911F910F91FF90EF90DF90CF90BF9085
:10109000AF909F908F900895CF92DF92EF92FF9242
:1010A0000F931F93CF93DF93EC016A017B0121150E
:1010B000310579F4E881F9810190F081E02D642F08
:1010C000DF91CF911F910F91FF90EF90DF90CF9024
:1010D00009942A303105E9F477FF1AC06DE20E94C5
:1010E000C6078C0144275527BA014C195D096E09C2
:1010F0007F092AE0CE010E94F307800F911FDF9144
:10110000CF911F910F91FF90EF90DF90CF900895B6
:101110002AE0B701A601CE01DF91CF911F910F9177
:10112000FF90EF90DF90CF900C94F3070E94F408AB
:10113000B7FF0895821B930B0895DB018F939F9354
:101140000E940309BF91AF91A29F800D911DA39FA3
:10115000900DB29F900D11240895A1E21A2EAA1BA2
:10116000BB1BFD010DC0AA1FBB1FEE1FFF1FA21757
:10117000B307E407F50720F0A21BB30BE40BF50B54
:10118000661F771F881F991F1A9469F760957095DD
:10119000809590959B01AC01BD01CF010895052E6E
:1011A00097FB1EF400940E94E60857FD07D00E94AA
:1011B000AD0807FC03D04EF40C94E608509540951A
:1011C000309521953F4F4F4F5F4F089590958095F3
:1011D000709561957F4F8F4F9F4F0895EE0FFF1FC2
:1011E0000590F491E02D0994A29FB001B39FC00136
:1011F000A39F700D811D1124911DB29F700D811D43
:101200001124911D08950E94F408A59F900DB49F8C
:10121000900DA49F800D911D11240895F894FFCF87
:10122000010000000300012000000000009F05866F
:0A12300007450572055705940500F7
:00000001FF
